{
  "contractName": "PongTournament",
  "abi": [
    {
      "anonymous": false,
      "inputs": [
        {
          "indexed": true,
          "internalType": "address",
          "name": "Tournament",
          "type": "address"
        },
        {
          "indexed": true,
          "internalType": "uint256",
          "name": "id",
          "type": "uint256"
        },
        {
          "indexed": false,
          "internalType": "string",
          "name": "tournamentName",
          "type": "string"
        },
        {
          "indexed": false,
          "internalType": "string",
          "name": "winnerName",
          "type": "string"
        }
      ],
      "name": "TournamentUpdated",
      "type": "event"
    },
    {
      "inputs": [
        {
          "internalType": "uint256",
          "name": "id",
          "type": "uint256"
        },
        {
          "internalType": "string",
          "name": "tournamentName",
          "type": "string"
        },
        {
          "internalType": "string",
          "name": "winnerName",
          "type": "string"
        }
      ],
      "name": "updateResult",
      "outputs": [],
      "stateMutability": "nonpayable",
      "type": "function"
    },
    {
      "inputs": [
        {
          "internalType": "address",
          "name": "tournamentAddress",
          "type": "address"
        }
      ],
      "name": "getTournamentInfo",
      "outputs": [
        {
          "internalType": "uint256",
          "name": "",
          "type": "uint256"
        },
        {
          "internalType": "string",
          "name": "",
          "type": "string"
        },
        {
          "internalType": "string",
          "name": "",
          "type": "string"
        }
      ],
      "stateMutability": "view",
      "type": "function",
      "constant": true
    }
  ],
  "bytecode": "0x608060405234801561001057600080fd5b50610987806100206000396000f3fe608060405234801561001057600080fd5b50600436106100365760003560e01c8063588bfb161461003b578063f940659114610057575b600080fd5b610055600480360381019061005091906105b2565b610089565b005b610071600480360381019061006c9190610589565b6101d1565b604051610080939291906106f3565b60405180910390f35b826000803373ffffffffffffffffffffffffffffffffffffffff1673ffffffffffffffffffffffffffffffffffffffff16815260200190815260200160002060000181905550816000803373ffffffffffffffffffffffffffffffffffffffff1673ffffffffffffffffffffffffffffffffffffffff1681526020019081526020016000206001019080519060200190610124929190610454565b50806000803373ffffffffffffffffffffffffffffffffffffffff1673ffffffffffffffffffffffffffffffffffffffff168152602001908152602001600020600201908051906020019061017a929190610454565b50823373ffffffffffffffffffffffffffffffffffffffff167fc8efc06c44b9ad0bcd954cf1eff8844276160a39c57c93f28b0b1b0492a60e1a84846040516101c492919061069c565b60405180910390a3505050565b600060608060008060008673ffffffffffffffffffffffffffffffffffffffff1673ffffffffffffffffffffffffffffffffffffffff16815260200190815260200160002060000154146104125760008060008673ffffffffffffffffffffffffffffffffffffffff1673ffffffffffffffffffffffffffffffffffffffff16815260200190815260200160002060000154905060008060008773ffffffffffffffffffffffffffffffffffffffff1673ffffffffffffffffffffffffffffffffffffffff16815260200190815260200160002060010180546102b390610828565b80601f01602080910402602001604051908101604052809291908181526020018280546102df90610828565b801561032c5780601f106103015761010080835404028352916020019161032c565b820191906000526020600020905b81548152906001019060200180831161030f57829003601f168201915b5050505050905060008060008873ffffffffffffffffffffffffffffffffffffffff1673ffffffffffffffffffffffffffffffffffffffff168152602001908152602001600020600201805461038190610828565b80601f01602080910402602001604051908101604052809291908181526020018280546103ad90610828565b80156103fa5780601f106103cf576101008083540402835291602001916103fa565b820191906000526020600020905b8154815290600101906020018083116103dd57829003601f168201915b5050505050905082828295509550955050505061044d565b6040517f08c379a0000000000000000000000000000000000000000000000000000000008152600401610444906106d3565b60405180910390fd5b9193909250565b82805461046090610828565b90600052602060002090601f01602090048101928261048257600085556104c9565b82601f1061049b57805160ff19168380011785556104c9565b828001600101855582156104c9579182015b828111156104c85782518255916020019190600101906104ad565b5b5090506104d691906104da565b5090565b5b808211156104f35760008160009055506001016104db565b5090565b600061050a6105058461075d565b610738565b90508281526020810184848401111561052257600080fd5b61052d8482856107e6565b509392505050565b60008135905061054481610923565b92915050565b600082601f83011261055b57600080fd5b813561056b8482602086016104f7565b91505092915050565b6000813590506105838161093a565b92915050565b60006020828403121561059b57600080fd5b60006105a984828501610535565b91505092915050565b6000806000606084860312156105c757600080fd5b60006105d586828701610574565b935050602084013567ffffffffffffffff8111156105f257600080fd5b6105fe8682870161054a565b925050604084013567ffffffffffffffff81111561061b57600080fd5b6106278682870161054a565b9150509250925092565b600061063c8261078e565b6106468185610799565b93506106568185602086016107f5565b61065f816108e9565b840191505092915050565b6000610677601983610799565b9150610682826108fa565b602082019050919050565b610696816107dc565b82525050565b600060408201905081810360008301526106b68185610631565b905081810360208301526106ca8184610631565b90509392505050565b600060208201905081810360008301526106ec8161066a565b9050919050565b6000606082019050610708600083018661068d565b818103602083015261071a8185610631565b9050818103604083015261072e8184610631565b9050949350505050565b6000610742610753565b905061074e828261085a565b919050565b6000604051905090565b600067ffffffffffffffff821115610778576107776108ba565b5b610781826108e9565b9050602081019050919050565b600081519050919050565b600082825260208201905092915050565b60006107b5826107bc565b9050919050565b600073ffffffffffffffffffffffffffffffffffffffff82169050919050565b6000819050919050565b82818337600083830152505050565b60005b838110156108135780820151818401526020810190506107f8565b83811115610822576000848401525b50505050565b6000600282049050600182168061084057607f821691505b602082108114156108545761085361088b565b5b50919050565b610863826108e9565b810181811067ffffffffffffffff82111715610882576108816108ba565b5b80604052505050565b7f4e487b7100000000000000000000000000000000000000000000000000000000600052602260045260246000fd5b7f4e487b7100000000000000000000000000000000000000000000000000000000600052604160045260246000fd5b6000601f19601f8301169050919050565b7f546f75726e616d656e7420646f6573206e6f7420657869737400000000000000600082015250565b61092c816107aa565b811461093757600080fd5b50565b610943816107dc565b811461094e57600080fd5b5056fea2646970667358221220687febda3054b198731a3cb9fbe6b46f4eb7ec3dcbb7931c0b019dc79462cb1164736f6c63430008040033",
  "immutableReferences": {},
  "source": "// SPDX-License-Identifier: MIT\npragma solidity ^0.8.0;\n\ncontract PongTournament {\n    // Define a structure to hold Tournament information\n    struct Tournament {\n        uint256 id;\n        string  tournamentName;\n        string  winnerName;\n    }\n\n    // Map an address to a Tournament\n    mapping(address => Tournament) private tournament;\n\n    // Event that will be emitted whenever a Tournament's updated\n    event TournamentUpdated(address indexed Tournament, uint256 indexed id, string tournamentName, string winnerName);\n\n    // Function to update a Tournament's info\n    function updateResult(uint256 id, string memory tournamentName, string memory winnerName) public {\n        tournament[msg.sender].id = id;\n        tournament[msg.sender].tournamentName = tournamentName;\n        tournament[msg.sender].winnerName = winnerName;\n\n        // Emit the ScoreUpdated event\n        emit TournamentUpdated(msg.sender, id, tournamentName, winnerName);\n    }\n\n    // Function to retrieve a Tournament's info\n    function getTournamentInfo(address tournamentAddress) public view returns (uint256, string memory, string memory) {\n        // Return the tournament's info, mapping returns 0 if Tournament doesn't exist\n        if (tournament[tournamentAddress].id != 0) {\n            uint id = tournament[tournamentAddress].id;\n            string memory name = tournament[tournamentAddress].tournamentName;\n            string memory winner = tournament[tournamentAddress].winnerName;\n            return (id, name, winner);\n        }\n        else\n             revert(\"Tournament does not exist\");\n    }\n}\n",
  "sourcePath": "/transcendence/blockchain/contracts/PongTournament.sol",
  "compiler": {
    "name": "solc",
    "version": "0.8.4+commit.c7e474f2.Emscripten.clang"
  },
  "schemaVersion": "3.4.16",
  "updatedAt": "2024-03-28T13:54:18.520Z",
  "networkType": "ethereum",
  "devdoc": {
    "kind": "dev",
    "methods": {},
    "version": 1
  },
  "userdoc": {
    "kind": "user",
    "methods": {},
    "version": 1
  }
}