{
  "contractName": "PongTournament",
  "abi": [
    {
      "anonymous": false,
      "inputs": [
        {
          "indexed": true,
          "internalType": "uint256",
          "name": "id",
          "type": "uint256"
        },
        {
          "indexed": false,
          "internalType": "string",
          "name": "tournamentName",
          "type": "string"
        },
        {
          "indexed": false,
          "internalType": "string",
          "name": "winnerUsername",
          "type": "string"
        },
        {
          "indexed": false,
          "internalType": "string",
          "name": "p1Username",
          "type": "string"
        },
        {
          "indexed": false,
          "internalType": "string",
          "name": "p1Nickname",
          "type": "string"
        },
        {
          "indexed": false,
          "internalType": "string",
          "name": "p2Username",
          "type": "string"
        },
        {
          "indexed": false,
          "internalType": "string",
          "name": "p2Nickname",
          "type": "string"
        },
        {
          "indexed": false,
          "internalType": "string",
          "name": "p3Username",
          "type": "string"
        },
        {
          "indexed": false,
          "internalType": "string",
          "name": "p3Nickname",
          "type": "string"
        },
        {
          "indexed": false,
          "internalType": "string",
          "name": "p4Username",
          "type": "string"
        },
        {
          "indexed": false,
          "internalType": "string",
          "name": "p4Nickname",
          "type": "string"
        }
      ],
      "name": "TournamentCreated",
      "type": "event"
    },
    {
      "inputs": [],
      "name": "tournamentCount",
      "outputs": [
        {
          "internalType": "uint256",
          "name": "",
          "type": "uint256"
        }
      ],
      "stateMutability": "view",
      "type": "function",
      "constant": true
    },
    {
      "inputs": [
        {
          "internalType": "string",
          "name": "tournamentName",
          "type": "string"
        },
        {
          "internalType": "string",
          "name": "winnerUsername",
          "type": "string"
        },
        {
          "internalType": "string",
          "name": "p1Username",
          "type": "string"
        },
        {
          "internalType": "string",
          "name": "p1Nickname",
          "type": "string"
        },
        {
          "internalType": "string",
          "name": "p2Username",
          "type": "string"
        },
        {
          "internalType": "string",
          "name": "p2Nickname",
          "type": "string"
        },
        {
          "internalType": "string",
          "name": "p3Username",
          "type": "string"
        },
        {
          "internalType": "string",
          "name": "p3Nickname",
          "type": "string"
        },
        {
          "internalType": "string",
          "name": "p4Username",
          "type": "string"
        },
        {
          "internalType": "string",
          "name": "p4Nickname",
          "type": "string"
        }
      ],
      "name": "createTournament",
      "outputs": [],
      "stateMutability": "nonpayable",
      "type": "function"
    },
    {
      "inputs": [],
      "name": "getAllTournaments",
      "outputs": [
        {
          "components": [
            {
              "internalType": "string",
              "name": "tournamentName",
              "type": "string"
            },
            {
              "internalType": "string",
              "name": "winnerUsername",
              "type": "string"
            },
            {
              "internalType": "string",
              "name": "p1Username",
              "type": "string"
            },
            {
              "internalType": "string",
              "name": "p1Nickname",
              "type": "string"
            },
            {
              "internalType": "string",
              "name": "p2Username",
              "type": "string"
            },
            {
              "internalType": "string",
              "name": "p2Nickname",
              "type": "string"
            },
            {
              "internalType": "string",
              "name": "p3Username",
              "type": "string"
            },
            {
              "internalType": "string",
              "name": "p3Nickname",
              "type": "string"
            },
            {
              "internalType": "string",
              "name": "p4Username",
              "type": "string"
            },
            {
              "internalType": "string",
              "name": "p4Nickname",
              "type": "string"
            },
            {
              "internalType": "bool",
              "name": "exists",
              "type": "bool"
            }
          ],
          "internalType": "struct PongTournament.Tournament[]",
          "name": "",
          "type": "tuple[]"
        }
      ],
      "stateMutability": "view",
      "type": "function",
      "constant": true
    }
  ],
  "bytecode": "0x608060405234801561001057600080fd5b5061133c806100206000396000f3fe608060405234801561001057600080fd5b50600436106100415760003560e01c806307668efe146100465780636e2b2c7c14610062578063ecccc6da14610080575b600080fd5b610060600480360381019061005b9190610b77565b61009e565b005b61006a6102f4565b604051610077919061108d565b60405180910390f35b6100886102fa565b6040516100959190610f89565b60405180910390f35b89600160008054815260200190815260200160002060000190805190602001906100c9929190610a10565b5088600160008054815260200190815260200160002060010190805190602001906100f5929190610a10565b508760016000805481526020019081526020016000206002019080519060200190610121929190610a10565b50866001600080548152602001908152602001600020600301908051906020019061014d929190610a10565b508560016000805481526020019081526020016000206004019080519060200190610179929190610a10565b5084600160008054815260200190815260200160002060050190805190602001906101a5929190610a10565b5083600160008054815260200190815260200160002060060190805190602001906101d1929190610a10565b5082600160008054815260200190815260200160002060070190805190602001906101fd929190610a10565b508160016000805481526020019081526020016000206008019080519060200190610229929190610a10565b508060016000805481526020019081526020016000206009019080519060200190610255929190610a10565b50600180600080548152602001908152602001600020600a0160006101000a81548160ff0219169083151502179055506000808154809291906102979061121f565b91905055506000547f562bed076522680f459863d945c57969e763457797992a18d626e374e08593828b8b8b8b8b8b8b8b8b8b6040516102e09a99989796959493929190610fab565b60405180910390a250505050505050505050565b60005481565b60606000805467ffffffffffffffff81111561033f577f4e487b7100000000000000000000000000000000000000000000000000000000600052604160045260246000fd5b60405190808252806020026020018201604052801561037857816020015b610365610a96565b81526020019060019003908161035d5790505b5090506000805b600054811015610a045760016000828152602001908152602001600020600a0160009054906101000a900460ff16156109f15760016000828152602001908152602001600020604051806101600160405290816000820180546103e1906111bc565b80601f016020809104026020016040519081016040528092919081815260200182805461040d906111bc565b801561045a5780601f1061042f5761010080835404028352916020019161045a565b820191906000526020600020905b81548152906001019060200180831161043d57829003601f168201915b50505050508152602001600182018054610473906111bc565b80601f016020809104026020016040519081016040528092919081815260200182805461049f906111bc565b80156104ec5780601f106104c1576101008083540402835291602001916104ec565b820191906000526020600020905b8154815290600101906020018083116104cf57829003601f168201915b50505050508152602001600282018054610505906111bc565b80601f0160208091040260200160405190810160405280929190818152602001828054610531906111bc565b801561057e5780601f106105535761010080835404028352916020019161057e565b820191906000526020600020905b81548152906001019060200180831161056157829003601f168201915b50505050508152602001600382018054610597906111bc565b80601f01602080910402602001604051908101604052809291908181526020018280546105c3906111bc565b80156106105780601f106105e557610100808354040283529160200191610610565b820191906000526020600020905b8154815290600101906020018083116105f357829003601f168201915b50505050508152602001600482018054610629906111bc565b80601f0160208091040260200160405190810160405280929190818152602001828054610655906111bc565b80156106a25780601f10610677576101008083540402835291602001916106a2565b820191906000526020600020905b81548152906001019060200180831161068557829003601f168201915b505050505081526020016005820180546106bb906111bc565b80601f01602080910402602001604051908101604052809291908181526020018280546106e7906111bc565b80156107345780601f1061070957610100808354040283529160200191610734565b820191906000526020600020905b81548152906001019060200180831161071757829003601f168201915b5050505050815260200160068201805461074d906111bc565b80601f0160208091040260200160405190810160405280929190818152602001828054610779906111bc565b80156107c65780601f1061079b576101008083540402835291602001916107c6565b820191906000526020600020905b8154815290600101906020018083116107a957829003601f168201915b505050505081526020016007820180546107df906111bc565b80601f016020809104026020016040519081016040528092919081815260200182805461080b906111bc565b80156108585780601f1061082d57610100808354040283529160200191610858565b820191906000526020600020905b81548152906001019060200180831161083b57829003601f168201915b50505050508152602001600882018054610871906111bc565b80601f016020809104026020016040519081016040528092919081815260200182805461089d906111bc565b80156108ea5780601f106108bf576101008083540402835291602001916108ea565b820191906000526020600020905b8154815290600101906020018083116108cd57829003601f168201915b50505050508152602001600982018054610903906111bc565b80601f016020809104026020016040519081016040528092919081815260200182805461092f906111bc565b801561097c5780601f106109515761010080835404028352916020019161097c565b820191906000526020600020905b81548152906001019060200180831161095f57829003601f168201915b50505050508152602001600a820160009054906101000a900460ff1615151515815250508383806109ac9061121f565b9450815181106109e5577f4e487b7100000000000000000000000000000000000000000000000000000000600052603260045260246000fd5b60200260200101819052505b80806109fc9061121f565b91505061037f565b50808252819250505090565b828054610a1c906111bc565b90600052602060002090601f016020900481019282610a3e5760008555610a85565b82601f10610a5757805160ff1916838001178555610a85565b82800160010185558215610a85579182015b82811115610a84578251825591602001919060010190610a69565b5b509050610a929190610af2565b5090565b604051806101600160405280606081526020016060815260200160608152602001606081526020016060815260200160608152602001606081526020016060815260200160608152602001606081526020016000151581525090565b5b80821115610b0b576000816000905550600101610af3565b5090565b6000610b22610b1d846110cd565b6110a8565b905082815260208101848484011115610b3a57600080fd5b610b4584828561117a565b509392505050565b600082601f830112610b5e57600080fd5b8135610b6e848260208601610b0f565b91505092915050565b6000806000806000806000806000806101408b8d031215610b9757600080fd5b60008b013567ffffffffffffffff811115610bb157600080fd5b610bbd8d828e01610b4d565b9a505060208b013567ffffffffffffffff811115610bda57600080fd5b610be68d828e01610b4d565b99505060408b013567ffffffffffffffff811115610c0357600080fd5b610c0f8d828e01610b4d565b98505060608b013567ffffffffffffffff811115610c2c57600080fd5b610c388d828e01610b4d565b97505060808b013567ffffffffffffffff811115610c5557600080fd5b610c618d828e01610b4d565b96505060a08b013567ffffffffffffffff811115610c7e57600080fd5b610c8a8d828e01610b4d565b95505060c08b013567ffffffffffffffff811115610ca757600080fd5b610cb38d828e01610b4d565b94505060e08b013567ffffffffffffffff811115610cd057600080fd5b610cdc8d828e01610b4d565b9350506101008b013567ffffffffffffffff811115610cfa57600080fd5b610d068d828e01610b4d565b9250506101208b013567ffffffffffffffff811115610d2457600080fd5b610d308d828e01610b4d565b9150509295989b9194979a5092959850565b6000610d4e8383610e4c565b905092915050565b6000610d618261110e565b610d6b8185611131565b935083602082028501610d7d856110fe565b8060005b85811015610db95784840389528151610d9a8582610d42565b9450610da583611124565b925060208a01995050600181019050610d81565b50829750879550505050505092915050565b610dd481611164565b82525050565b6000610de582611119565b610def8185611142565b9350610dff818560208601611189565b610e08816112f5565b840191505092915050565b6000610e1e82611119565b610e288185611153565b9350610e38818560208601611189565b610e41816112f5565b840191505092915050565b6000610160830160008301518482036000860152610e6a8282610dda565b91505060208301518482036020860152610e848282610dda565b91505060408301518482036040860152610e9e8282610dda565b91505060608301518482036060860152610eb88282610dda565b91505060808301518482036080860152610ed28282610dda565b91505060a083015184820360a0860152610eec8282610dda565b91505060c083015184820360c0860152610f068282610dda565b91505060e083015184820360e0860152610f208282610dda565b915050610100830151848203610100860152610f3c8282610dda565b915050610120830151848203610120860152610f588282610dda565b915050610140830151610f6f610140860182610dcb565b508091505092915050565b610f8381611170565b82525050565b60006020820190508181036000830152610fa38184610d56565b905092915050565b6000610140820190508181036000830152610fc6818d610e13565b90508181036020830152610fda818c610e13565b90508181036040830152610fee818b610e13565b90508181036060830152611002818a610e13565b905081810360808301526110168189610e13565b905081810360a083015261102a8188610e13565b905081810360c083015261103e8187610e13565b905081810360e08301526110528186610e13565b90508181036101008301526110678185610e13565b905081810361012083015261107c8184610e13565b90509b9a5050505050505050505050565b60006020820190506110a26000830184610f7a565b92915050565b60006110b26110c3565b90506110be82826111ee565b919050565b6000604051905090565b600067ffffffffffffffff8211156110e8576110e76112c6565b5b6110f1826112f5565b9050602081019050919050565b6000819050602082019050919050565b600081519050919050565b600081519050919050565b6000602082019050919050565b600082825260208201905092915050565b600082825260208201905092915050565b600082825260208201905092915050565b60008115159050919050565b6000819050919050565b82818337600083830152505050565b60005b838110156111a757808201518184015260208101905061118c565b838111156111b6576000848401525b50505050565b600060028204905060018216806111d457607f821691505b602082108114156111e8576111e7611297565b5b50919050565b6111f7826112f5565b810181811067ffffffffffffffff82111715611216576112156112c6565b5b80604052505050565b600061122a82611170565b91507fffffffffffffffffffffffffffffffffffffffffffffffffffffffffffffffff82141561125d5761125c611268565b5b600182019050919050565b7f4e487b7100000000000000000000000000000000000000000000000000000000600052601160045260246000fd5b7f4e487b7100000000000000000000000000000000000000000000000000000000600052602260045260246000fd5b7f4e487b7100000000000000000000000000000000000000000000000000000000600052604160045260246000fd5b6000601f19601f830116905091905056fea2646970667358221220effe07d76687af1372b547826d1a33a85fda485a5652f6b5a5d25720df454e7364736f6c63430008040033",
  "immutableReferences": {},
  "source": "// SPDX-License-Identifier: MIT\npragma solidity ^0.8.0;\n\ncontract PongTournament {\n    struct Tournament {\n        string tournamentName;\n        string winnerUsername;\n        string p1Username;\n        string p1Nickname;\n        string p2Username;\n        string p2Nickname;\n        string p3Username;\n        string p3Nickname;\n        string p4Username;\n        string p4Nickname;\n        bool   exists;\n    }\n    uint256 public tournamentCount;\n\n    // Map tournament IDs to their respective Tournament\n    mapping(uint256 => Tournament) private tournaments;\n\n    // Event that will be emitted whenever a Tournament's updated\n    event TournamentCreated(uint256 indexed id, string tournamentName, string winnerUsername, string p1Username, string p1Nickname, string p2Username, string p2Nickname, string p3Username, string p3Nickname, string p4Username, string p4Nickname);\n\n    // Function to update a Tournament's info\n    function createTournament(string memory tournamentName, string memory winnerUsername, string memory p1Username, string memory p1Nickname, string memory p2Username, string memory p2Nickname, string memory p3Username, string memory p3Nickname, string memory p4Username, string memory p4Nickname)  public {\n        tournaments[tournamentCount].tournamentName = tournamentName;\n        tournaments[tournamentCount].winnerUsername = winnerUsername;\n        tournaments[tournamentCount].p1Username = p1Username;\n        tournaments[tournamentCount].p1Nickname = p1Nickname;\n        tournaments[tournamentCount].p2Username = p2Username;\n        tournaments[tournamentCount].p2Nickname = p2Nickname;\n        tournaments[tournamentCount].p3Username = p3Username;\n        tournaments[tournamentCount].p3Nickname = p3Nickname;\n        tournaments[tournamentCount].p4Username = p4Username;\n        tournaments[tournamentCount].p4Nickname = p4Nickname;\n        tournaments[tournamentCount].exists = true;\n\n        tournamentCount++;\n\n        emit TournamentCreated(tournamentCount, tournamentName, winnerUsername, p1Username, p1Nickname, p2Username, p2Nickname, p3Username, p3Nickname, p4Username, p4Nickname);\n    }\n\n\tfunction getAllTournaments() public view returns (Tournament[] memory) {\n\t\t// Create a new array to store existing tournaments\n\t\tTournament[] memory existingTournaments = new Tournament[](tournamentCount);\n\n\t\t// Counter for existing tournaments\n\t\tuint256 existingTournamentsCount = 0;\n\n\t\t// Iterate through the tournaments mapping\n\t\tfor (uint256 i = 0; i < tournamentCount; i++) {\n\t\t\t// Check if tournament exists\n\t\t\tif (tournaments[i].exists) {\n\t\t\t\t// Add tournament details to the array and increment the counter\n\t\t\t\texistingTournaments[existingTournamentsCount++] = tournaments[i];\n\t\t\t}\n\t\t}\n\n\t\t// Resize the array to the number of existing tournaments\n\t\tassembly {\n\t\t\tmstore(existingTournaments, existingTournamentsCount)\n\t\t}\n\n\t\treturn existingTournaments;\n\t}\n}",
  "sourcePath": "/transcendence/blockchain/contracts/PongTournament.sol",
  "compiler": {
    "name": "solc",
    "version": "0.8.4+commit.c7e474f2.Emscripten.clang"
  },
  "schemaVersion": "3.4.16",
  "updatedAt": "2024-04-22T15:46:41.631Z",
  "networkType": "ethereum",
  "devdoc": {
    "kind": "dev",
    "methods": {},
    "version": 1
  },
  "userdoc": {
    "kind": "user",
    "methods": {},
    "version": 1
  }
}