{
  "contractName": "PongTournament",
  "abi": [
    {
      "anonymous": false,
      "inputs": [
        {
          "indexed": true,
          "internalType": "uint256",
          "name": "id",
          "type": "uint256"
        },
        {
          "indexed": false,
          "internalType": "string",
          "name": "tournamentName",
          "type": "string"
        },
        {
          "indexed": false,
          "internalType": "string",
          "name": "winnerName",
          "type": "string"
        },
        {
          "indexed": false,
          "internalType": "string",
          "name": "winnerNickname",
          "type": "string"
        }
      ],
      "name": "TournamentUpdated",
      "type": "event"
    },
    {
      "inputs": [
        {
          "internalType": "uint256",
          "name": "id",
          "type": "uint256"
        },
        {
          "internalType": "string",
          "name": "tournamentName",
          "type": "string"
        },
        {
          "internalType": "string",
          "name": "winnerName",
          "type": "string"
        },
        {
          "internalType": "string",
          "name": "winnerNickname",
          "type": "string"
        }
      ],
      "name": "updateResult",
      "outputs": [],
      "stateMutability": "nonpayable",
      "type": "function"
    },
    {
      "inputs": [
        {
          "internalType": "uint256",
          "name": "id",
          "type": "uint256"
        }
      ],
      "name": "getTournamentResult",
      "outputs": [
        {
          "internalType": "string",
          "name": "",
          "type": "string"
        },
        {
          "internalType": "string",
          "name": "",
          "type": "string"
        },
        {
          "internalType": "string",
          "name": "",
          "type": "string"
        }
      ],
      "stateMutability": "view",
      "type": "function",
      "constant": true
    },
    {
      "inputs": [
        {
          "internalType": "uint256",
          "name": "id",
          "type": "uint256"
        }
      ],
      "name": "tournamentExists",
      "outputs": [
        {
          "internalType": "bool",
          "name": "",
          "type": "bool"
        }
      ],
      "stateMutability": "view",
      "type": "function",
      "constant": true
    }
  ],
  "bytecode": "0x608060405234801561001057600080fd5b5061094c806100206000396000f3fe608060405234801561001057600080fd5b50600436106100415760003560e01c8063695e615a14610046578063ddec9d7514610076578063f95a1ef9146100a8575b600080fd5b610060600480360381019061005b9190610574565b6100c4565b60405161006d91906106b3565b60405180910390f35b610090600480360381019061008b9190610574565b6100f0565b60405161009f939291906106ce565b60405180910390f35b6100c260048036038101906100bd919061059d565b610366565b005b600080600083815260200190815260200160002060030160009054906101000a900460ff169050919050565b6060806060600080600086815260200190815260200160002060405180608001604052908160008201805461012490610804565b80601f016020809104026020016040519081016040528092919081815260200182805461015090610804565b801561019d5780601f106101725761010080835404028352916020019161019d565b820191906000526020600020905b81548152906001019060200180831161018057829003601f168201915b505050505081526020016001820180546101b690610804565b80601f01602080910402602001604051908101604052809291908181526020018280546101e290610804565b801561022f5780601f106102045761010080835404028352916020019161022f565b820191906000526020600020905b81548152906001019060200180831161021257829003601f168201915b5050505050815260200160028201805461024890610804565b80601f016020809104026020016040519081016040528092919081815260200182805461027490610804565b80156102c15780601f10610296576101008083540402835291602001916102c1565b820191906000526020600020905b8154815290600101906020018083116102a457829003601f168201915b505050505081526020016003820160009054906101000a900460ff161515151581525050905060008086815260200190815260200160002060030160009054906101000a900460ff16610349576040517f08c379a00000000000000000000000000000000000000000000000000000000081526004016103409061071a565b60405180910390fd5b806000015181602001518260400151935093509350509193909250565b82600080868152602001908152602001600020600001908051906020019061038f929190610454565b508160008086815260200190815260200160002060010190805190602001906103b9929190610454565b508060008086815260200190815260200160002060020190805190602001906103e3929190610454565b50600160008086815260200190815260200160002060030160006101000a81548160ff021916908315150217905550837f4d6399b64f4dac9dbae752cec39f0a5c207ea06faf9aac474e530d664679707d848484604051610446939291906106ce565b60405180910390a250505050565b82805461046090610804565b90600052602060002090601f01602090048101928261048257600085556104c9565b82601f1061049b57805160ff19168380011785556104c9565b828001600101855582156104c9579182015b828111156104c85782518255916020019190600101906104ad565b5b5090506104d691906104da565b5090565b5b808211156104f35760008160009055506001016104db565b5090565b600061050a6105058461075f565b61073a565b90508281526020810184848401111561052257600080fd5b61052d8482856107c2565b509392505050565b600082601f83011261054657600080fd5b81356105568482602086016104f7565b91505092915050565b60008135905061056e816108ff565b92915050565b60006020828403121561058657600080fd5b60006105948482850161055f565b91505092915050565b600080600080608085870312156105b357600080fd5b60006105c18782880161055f565b945050602085013567ffffffffffffffff8111156105de57600080fd5b6105ea87828801610535565b935050604085013567ffffffffffffffff81111561060757600080fd5b61061387828801610535565b925050606085013567ffffffffffffffff81111561063057600080fd5b61063c87828801610535565b91505092959194509250565b610651816107ac565b82525050565b600061066282610790565b61066c818561079b565b935061067c8185602086016107d1565b610685816108c5565b840191505092915050565b600061069d60198361079b565b91506106a8826108d6565b602082019050919050565b60006020820190506106c86000830184610648565b92915050565b600060608201905081810360008301526106e88186610657565b905081810360208301526106fc8185610657565b905081810360408301526107108184610657565b9050949350505050565b6000602082019050818103600083015261073381610690565b9050919050565b6000610744610755565b90506107508282610836565b919050565b6000604051905090565b600067ffffffffffffffff82111561077a57610779610896565b5b610783826108c5565b9050602081019050919050565b600081519050919050565b600082825260208201905092915050565b60008115159050919050565b6000819050919050565b82818337600083830152505050565b60005b838110156107ef5780820151818401526020810190506107d4565b838111156107fe576000848401525b50505050565b6000600282049050600182168061081c57607f821691505b602082108114156108305761082f610867565b5b50919050565b61083f826108c5565b810181811067ffffffffffffffff8211171561085e5761085d610896565b5b80604052505050565b7f4e487b7100000000000000000000000000000000000000000000000000000000600052602260045260246000fd5b7f4e487b7100000000000000000000000000000000000000000000000000000000600052604160045260246000fd5b6000601f19601f8301169050919050565b7f546f75726e616d656e7420646f6573206e6f7420657869737400000000000000600082015250565b610908816107b8565b811461091357600080fd5b5056fea2646970667358221220975027113f208a7f45f6b7a61dbf94dae4225ef7c3b436d62b9f523bbf9fb3eb64736f6c63430008040033",
  "immutableReferences": {},
  "source": "// SPDX-License-Identifier: MIT\npragma solidity ^0.8.0;\n\ncontract PongTournament {\n    // Structure that holds Tournament information\n    struct Tournament {\n        string tournamentName;\n        string winnerName;\n        string winnerNickname;\n        bool   exists;\n    }\n\n    // Map tournament IDs to their respective Tournament\n    mapping(uint256 => Tournament) private tournaments;\n\n    // Event that will be emitted whenever a Tournament's updated\n    event TournamentUpdated(uint256 indexed id, string tournamentName, string winnerName, string winnerNickname);\n\n    // Function to update a Tournament's info\n    function updateResult(uint256 id, string memory tournamentName, string memory winnerName, string memory winnerNickname) public {\n        tournaments[id].tournamentName = tournamentName;\n        tournaments[id].winnerName = winnerName;\n        tournaments[id].winnerNickname = winnerNickname;\n        tournaments[id].exists = true;\n\n        emit TournamentUpdated(id, tournamentName, winnerName, winnerNickname);\n    }\n\n    // Function to retrieve a Tournament's info\n    function getTournamentResult(uint256 id) public view returns (string memory, string memory, string memory) {\n        Tournament memory t = tournaments[id];\n        require(tournaments[id].exists, \"Tournament does not exist\");\n        return (t.tournamentName, t.winnerName, t.winnerNickname);\n    }\n\n    // Function to check if a Tournament exists\n    function tournamentExists(uint256 id) public view returns (bool) {\n        return tournaments[id].exists;\n    }\n}\n",
  "sourcePath": "/transcendence/blockchain/contracts/PongTournament.sol",
  "compiler": {
    "name": "solc",
    "version": "0.8.4+commit.c7e474f2.Emscripten.clang"
  },
  "schemaVersion": "3.4.16",
  "updatedAt": "2024-04-16T16:09:54.438Z",
  "networkType": "ethereum",
  "devdoc": {
    "kind": "dev",
    "methods": {},
    "version": 1
  },
  "userdoc": {
    "kind": "user",
    "methods": {},
    "version": 1
  }
}