{
  "contractName": "PongTournament",
  "abi": [
    {
      "anonymous": false,
      "inputs": [
        {
          "indexed": true,
          "internalType": "uint256",
          "name": "id",
          "type": "uint256"
        },
        {
          "indexed": false,
          "internalType": "string",
          "name": "tournamentName",
          "type": "string"
        },
        {
          "indexed": false,
          "internalType": "string",
          "name": "winnerName",
          "type": "string"
        }
      ],
      "name": "TournamentUpdated",
      "type": "event"
    },
    {
      "inputs": [
        {
          "internalType": "uint256",
          "name": "id",
          "type": "uint256"
        },
        {
          "internalType": "string",
          "name": "tournamentName",
          "type": "string"
        },
        {
          "internalType": "string",
          "name": "winnerName",
          "type": "string"
        }
      ],
      "name": "updateResult",
      "outputs": [],
      "stateMutability": "nonpayable",
      "type": "function"
    },
    {
      "inputs": [
        {
          "internalType": "uint256",
          "name": "tournamentId",
          "type": "uint256"
        }
      ],
      "name": "getTournamentResult",
      "outputs": [
        {
          "internalType": "string",
          "name": "",
          "type": "string"
        },
        {
          "internalType": "string",
          "name": "",
          "type": "string"
        }
      ],
      "stateMutability": "view",
      "type": "function",
      "constant": true
    }
  ],
  "bytecode": "0x608060405234801561001057600080fd5b50610740806100206000396000f3fe608060405234801561001057600080fd5b50600436106100365760003560e01c8063588bfb161461003b578063ddec9d7514610057575b600080fd5b61005560048036038101906100509190610408565b610088565b005b610071600480360381019061006c91906103df565b61011b565b60405161007f9291906104e3565b60405180910390f35b8160008085815260200190815260200160002060000190805190602001906100b19291906102bf565b508060008085815260200190815260200160002060010190805190602001906100db9291906102bf565b50827fa6496b06d4cb55a9a8c8f4e0b8a1097a1cd00d65717ee3a28493776e16316993838360405161010e9291906104e3565b60405180910390a2505050565b606080600080600085815260200190815260200160002060405180604001604052908160008201805461014d906105f8565b80601f0160208091040260200160405190810160405280929190818152602001828054610179906105f8565b80156101c65780601f1061019b576101008083540402835291602001916101c6565b820191906000526020600020905b8154815290600101906020018083116101a957829003601f168201915b505050505081526020016001820180546101df906105f8565b80601f016020809104026020016040519081016040528092919081815260200182805461020b906105f8565b80156102585780601f1061022d57610100808354040283529160200191610258565b820191906000526020600020905b81548152906001019060200180831161023b57829003601f168201915b50505050508152505090506000816000015151116102ab576040517f08c379a00000000000000000000000000000000000000000000000000000000081526004016102a29061051a565b60405180910390fd5b806000015181602001519250925050915091565b8280546102cb906105f8565b90600052602060002090601f0160209004810192826102ed5760008555610334565b82601f1061030657805160ff1916838001178555610334565b82800160010185558215610334579182015b82811115610333578251825591602001919060010190610318565b5b5090506103419190610345565b5090565b5b8082111561035e576000816000905550600101610346565b5090565b60006103756103708461055f565b61053a565b90508281526020810184848401111561038d57600080fd5b6103988482856105b6565b509392505050565b600082601f8301126103b157600080fd5b81356103c1848260208601610362565b91505092915050565b6000813590506103d9816106f3565b92915050565b6000602082840312156103f157600080fd5b60006103ff848285016103ca565b91505092915050565b60008060006060848603121561041d57600080fd5b600061042b868287016103ca565b935050602084013567ffffffffffffffff81111561044857600080fd5b610454868287016103a0565b925050604084013567ffffffffffffffff81111561047157600080fd5b61047d868287016103a0565b9150509250925092565b600061049282610590565b61049c818561059b565b93506104ac8185602086016105c5565b6104b5816106b9565b840191505092915050565b60006104cd60198361059b565b91506104d8826106ca565b602082019050919050565b600060408201905081810360008301526104fd8185610487565b905081810360208301526105118184610487565b90509392505050565b60006020820190508181036000830152610533816104c0565b9050919050565b6000610544610555565b9050610550828261062a565b919050565b6000604051905090565b600067ffffffffffffffff82111561057a5761057961068a565b5b610583826106b9565b9050602081019050919050565b600081519050919050565b600082825260208201905092915050565b6000819050919050565b82818337600083830152505050565b60005b838110156105e35780820151818401526020810190506105c8565b838111156105f2576000848401525b50505050565b6000600282049050600182168061061057607f821691505b602082108114156106245761062361065b565b5b50919050565b610633826106b9565b810181811067ffffffffffffffff821117156106525761065161068a565b5b80604052505050565b7f4e487b7100000000000000000000000000000000000000000000000000000000600052602260045260246000fd5b7f4e487b7100000000000000000000000000000000000000000000000000000000600052604160045260246000fd5b6000601f19601f8301169050919050565b7f546f75726e616d656e7420646f6573206e6f7420657869737400000000000000600082015250565b6106fc816105ac565b811461070757600080fd5b5056fea26469706673582212204eafd014364733851ff6f27d9e58cbc0ffa834687daeb2cf031a299b15b27d5b64736f6c63430008040033",
  "immutableReferences": {},
  "source": "// SPDX-License-Identifier: MIT\npragma solidity ^0.8.0;\n\ncontract PongTournament {\n    // Structure that holds Tournament information\n    struct Tournament {\n        string tournamentName;\n        string winnerName;\n    }\n\n    // Map tournament IDs to their respective Tournament\n    mapping(uint256 => Tournament) private tournaments;\n\n    // Event that will be emitted whenever a Tournament's updated\n    event TournamentUpdated(uint256 indexed id, string tournamentName, string winnerName);\n\n    // Function to update a Tournament's info\n    function updateResult(uint256 id, string memory tournamentName, string memory winnerName) public {\n        tournaments[id].tournamentName = tournamentName;\n        tournaments[id].winnerName = winnerName;\n\n        emit TournamentUpdated(id, tournamentName, winnerName);\n    }\n\n    // Function to retrieve a Tournament's info\n    function getTournamentResult(uint256 tournamentId) public view returns (string memory, string memory) {\n        Tournament memory t = tournaments[tournamentId];\n        require(bytes(t.tournamentName).length > 0, \"Tournament does not exist\");\n        return (t.tournamentName, t.winnerName);\n    }\n}\n",
  "sourcePath": "/transcendence/blockchain/contracts/PongTournament.sol",
  "compiler": {
    "name": "solc",
    "version": "0.8.4+commit.c7e474f2.Emscripten.clang"
  },
  "schemaVersion": "3.4.16",
  "updatedAt": "2024-04-12T16:22:02.222Z",
  "networkType": "ethereum",
  "devdoc": {
    "kind": "dev",
    "methods": {},
    "version": 1
  },
  "userdoc": {
    "kind": "user",
    "methods": {},
    "version": 1
  }
}