{
  "contractName": "PongTournament",
  "abi": [
    {
      "anonymous": false,
      "inputs": [
        {
          "indexed": true,
          "internalType": "uint256",
          "name": "id",
          "type": "uint256"
        },
        {
          "indexed": false,
          "internalType": "string",
          "name": "tournamentName",
          "type": "string"
        },
        {
          "indexed": false,
          "internalType": "string",
          "name": "winnerUsername",
          "type": "string"
        },
        {
          "indexed": false,
          "internalType": "string",
          "name": "p1Username",
          "type": "string"
        },
        {
          "indexed": false,
          "internalType": "string",
          "name": "p1Nickname",
          "type": "string"
        },
        {
          "indexed": false,
          "internalType": "string",
          "name": "p2Username",
          "type": "string"
        },
        {
          "indexed": false,
          "internalType": "string",
          "name": "p2Nickname",
          "type": "string"
        },
        {
          "indexed": false,
          "internalType": "string",
          "name": "p3Username",
          "type": "string"
        },
        {
          "indexed": false,
          "internalType": "string",
          "name": "p3Nickname",
          "type": "string"
        },
        {
          "indexed": false,
          "internalType": "string",
          "name": "p4Username",
          "type": "string"
        },
        {
          "indexed": false,
          "internalType": "string",
          "name": "p4Nickname",
          "type": "string"
        }
      ],
      "name": "TournamentUpdated",
      "type": "event"
    },
    {
      "inputs": [
        {
          "internalType": "uint256",
          "name": "id",
          "type": "uint256"
        },
        {
          "internalType": "string",
          "name": "tournamentName",
          "type": "string"
        },
        {
          "internalType": "string",
          "name": "winnerUsername",
          "type": "string"
        },
        {
          "internalType": "string",
          "name": "p1Username",
          "type": "string"
        },
        {
          "internalType": "string",
          "name": "p1Nickname",
          "type": "string"
        },
        {
          "internalType": "string",
          "name": "p2Username",
          "type": "string"
        },
        {
          "internalType": "string",
          "name": "p2Nickname",
          "type": "string"
        },
        {
          "internalType": "string",
          "name": "p3Username",
          "type": "string"
        },
        {
          "internalType": "string",
          "name": "p3Nickname",
          "type": "string"
        },
        {
          "internalType": "string",
          "name": "p4Username",
          "type": "string"
        },
        {
          "internalType": "string",
          "name": "p4Nickname",
          "type": "string"
        }
      ],
      "name": "updateResult",
      "outputs": [],
      "stateMutability": "nonpayable",
      "type": "function"
    },
    {
      "inputs": [
        {
          "internalType": "uint256",
          "name": "id",
          "type": "uint256"
        }
      ],
      "name": "getTournamentResult",
      "outputs": [
        {
          "internalType": "string",
          "name": "",
          "type": "string"
        },
        {
          "internalType": "string",
          "name": "",
          "type": "string"
        },
        {
          "internalType": "string",
          "name": "",
          "type": "string"
        },
        {
          "internalType": "string",
          "name": "",
          "type": "string"
        },
        {
          "internalType": "string",
          "name": "",
          "type": "string"
        },
        {
          "internalType": "string",
          "name": "",
          "type": "string"
        },
        {
          "internalType": "string",
          "name": "",
          "type": "string"
        },
        {
          "internalType": "string",
          "name": "",
          "type": "string"
        },
        {
          "internalType": "string",
          "name": "",
          "type": "string"
        },
        {
          "internalType": "string",
          "name": "",
          "type": "string"
        }
      ],
      "stateMutability": "view",
      "type": "function",
      "constant": true
    },
    {
      "inputs": [
        {
          "internalType": "uint256",
          "name": "id",
          "type": "uint256"
        }
      ],
      "name": "tournamentExists",
      "outputs": [
        {
          "internalType": "bool",
          "name": "",
          "type": "bool"
        }
      ],
      "stateMutability": "view",
      "type": "function",
      "constant": true
    }
  ],
  "bytecode": "0x608060405234801561001057600080fd5b5061109b806100206000396000f3fe608060405234801561001057600080fd5b50600436106100415760003560e01c8063695e615a1461004657806397877c1a14610076578063ddec9d7514610092575b600080fd5b610060600480360381019061005b9190610af8565b6100cb565b60405161006d9190610d6c565b60405180910390f35b610090600480360381019061008b9190610b21565b6100f7565b005b6100ac60048036038101906100a79190610af8565b610320565b6040516100c29a99989796959493929190610d87565b60405180910390f35b6000806000838152602001908152602001600020600a0160009054906101000a900460ff169050919050565b896000808d815260200190815260200160002060000190805190602001906101209291906109d8565b50886000808d8152602001908152602001600020600101908051906020019061014a9291906109d8565b50876000808d815260200190815260200160002060020190805190602001906101749291906109d8565b50866000808d8152602001908152602001600020600301908051906020019061019e9291906109d8565b50856000808d815260200190815260200160002060040190805190602001906101c89291906109d8565b50846000808d815260200190815260200160002060050190805190602001906101f29291906109d8565b50836000808d8152602001908152602001600020600601908051906020019061021c9291906109d8565b50826000808d815260200190815260200160002060070190805190602001906102469291906109d8565b50816000808d815260200190815260200160002060080190805190602001906102709291906109d8565b50806000808d8152602001908152602001600020600901908051906020019061029a9291906109d8565b5060016000808d8152602001908152602001600020600a0160006101000a81548160ff0219169083151502179055508a7f877d6e18819a495cb59b49afc697a42512d201a2434e42bde39fdc2c62c570cb8b8b8b8b8b8b8b8b8b8b60405161030b9a99989796959493929190610d87565b60405180910390a25050505050505050505050565b60608060608060608060608060608060008060008d81526020019081526020016000206040518061016001604052908160008201805461035f90610f53565b80601f016020809104026020016040519081016040528092919081815260200182805461038b90610f53565b80156103d85780601f106103ad576101008083540402835291602001916103d8565b820191906000526020600020905b8154815290600101906020018083116103bb57829003601f168201915b505050505081526020016001820180546103f190610f53565b80601f016020809104026020016040519081016040528092919081815260200182805461041d90610f53565b801561046a5780601f1061043f5761010080835404028352916020019161046a565b820191906000526020600020905b81548152906001019060200180831161044d57829003601f168201915b5050505050815260200160028201805461048390610f53565b80601f01602080910402602001604051908101604052809291908181526020018280546104af90610f53565b80156104fc5780601f106104d1576101008083540402835291602001916104fc565b820191906000526020600020905b8154815290600101906020018083116104df57829003601f168201915b5050505050815260200160038201805461051590610f53565b80601f016020809104026020016040519081016040528092919081815260200182805461054190610f53565b801561058e5780601f106105635761010080835404028352916020019161058e565b820191906000526020600020905b81548152906001019060200180831161057157829003601f168201915b505050505081526020016004820180546105a790610f53565b80601f01602080910402602001604051908101604052809291908181526020018280546105d390610f53565b80156106205780601f106105f557610100808354040283529160200191610620565b820191906000526020600020905b81548152906001019060200180831161060357829003601f168201915b5050505050815260200160058201805461063990610f53565b80601f016020809104026020016040519081016040528092919081815260200182805461066590610f53565b80156106b25780601f10610687576101008083540402835291602001916106b2565b820191906000526020600020905b81548152906001019060200180831161069557829003601f168201915b505050505081526020016006820180546106cb90610f53565b80601f01602080910402602001604051908101604052809291908181526020018280546106f790610f53565b80156107445780601f1061071957610100808354040283529160200191610744565b820191906000526020600020905b81548152906001019060200180831161072757829003601f168201915b5050505050815260200160078201805461075d90610f53565b80601f016020809104026020016040519081016040528092919081815260200182805461078990610f53565b80156107d65780601f106107ab576101008083540402835291602001916107d6565b820191906000526020600020905b8154815290600101906020018083116107b957829003601f168201915b505050505081526020016008820180546107ef90610f53565b80601f016020809104026020016040519081016040528092919081815260200182805461081b90610f53565b80156108685780601f1061083d57610100808354040283529160200191610868565b820191906000526020600020905b81548152906001019060200180831161084b57829003601f168201915b5050505050815260200160098201805461088190610f53565b80601f01602080910402602001604051908101604052809291908181526020018280546108ad90610f53565b80156108fa5780601f106108cf576101008083540402835291602001916108fa565b820191906000526020600020905b8154815290600101906020018083116108dd57829003601f168201915b50505050508152602001600a820160009054906101000a900460ff16151515158152505090506000808d8152602001908152602001600020600a0160009054906101000a900460ff16610982576040517f08c379a000000000000000000000000000000000000000000000000000000000815260040161097990610e69565b60405180910390fd5b806000015181602001518260400151836060015184608001518560a001518660c001518760e001518861010001518961012001519a509a509a509a509a509a509a509a509a509a50509193959799509193959799565b8280546109e490610f53565b90600052602060002090601f016020900481019282610a065760008555610a4d565b82601f10610a1f57805160ff1916838001178555610a4d565b82800160010185558215610a4d579182015b82811115610a4c578251825591602001919060010190610a31565b5b509050610a5a9190610a5e565b5090565b5b80821115610a77576000816000905550600101610a5f565b5090565b6000610a8e610a8984610eae565b610e89565b905082815260208101848484011115610aa657600080fd5b610ab1848285610f11565b509392505050565b600082601f830112610aca57600080fd5b8135610ada848260208601610a7b565b91505092915050565b600081359050610af28161104e565b92915050565b600060208284031215610b0a57600080fd5b6000610b1884828501610ae3565b91505092915050565b60008060008060008060008060008060006101608c8e031215610b4357600080fd5b6000610b518e828f01610ae3565b9b505060208c013567ffffffffffffffff811115610b6e57600080fd5b610b7a8e828f01610ab9565b9a505060408c013567ffffffffffffffff811115610b9757600080fd5b610ba38e828f01610ab9565b99505060608c013567ffffffffffffffff811115610bc057600080fd5b610bcc8e828f01610ab9565b98505060808c013567ffffffffffffffff811115610be957600080fd5b610bf58e828f01610ab9565b97505060a08c013567ffffffffffffffff811115610c1257600080fd5b610c1e8e828f01610ab9565b96505060c08c013567ffffffffffffffff811115610c3b57600080fd5b610c478e828f01610ab9565b95505060e08c013567ffffffffffffffff811115610c6457600080fd5b610c708e828f01610ab9565b9450506101008c013567ffffffffffffffff811115610c8e57600080fd5b610c9a8e828f01610ab9565b9350506101208c013567ffffffffffffffff811115610cb857600080fd5b610cc48e828f01610ab9565b9250506101408c013567ffffffffffffffff811115610ce257600080fd5b610cee8e828f01610ab9565b9150509295989b509295989b9093969950565b610d0a81610efb565b82525050565b6000610d1b82610edf565b610d258185610eea565b9350610d35818560208601610f20565b610d3e81611014565b840191505092915050565b6000610d56601983610eea565b9150610d6182611025565b602082019050919050565b6000602082019050610d816000830184610d01565b92915050565b6000610140820190508181036000830152610da2818d610d10565b90508181036020830152610db6818c610d10565b90508181036040830152610dca818b610d10565b90508181036060830152610dde818a610d10565b90508181036080830152610df28189610d10565b905081810360a0830152610e068188610d10565b905081810360c0830152610e1a8187610d10565b905081810360e0830152610e2e8186610d10565b9050818103610100830152610e438185610d10565b9050818103610120830152610e588184610d10565b90509b9a5050505050505050505050565b60006020820190508181036000830152610e8281610d49565b9050919050565b6000610e93610ea4565b9050610e9f8282610f85565b919050565b6000604051905090565b600067ffffffffffffffff821115610ec957610ec8610fe5565b5b610ed282611014565b9050602081019050919050565b600081519050919050565b600082825260208201905092915050565b60008115159050919050565b6000819050919050565b82818337600083830152505050565b60005b83811015610f3e578082015181840152602081019050610f23565b83811115610f4d576000848401525b50505050565b60006002820490506001821680610f6b57607f821691505b60208210811415610f7f57610f7e610fb6565b5b50919050565b610f8e82611014565b810181811067ffffffffffffffff82111715610fad57610fac610fe5565b5b80604052505050565b7f4e487b7100000000000000000000000000000000000000000000000000000000600052602260045260246000fd5b7f4e487b7100000000000000000000000000000000000000000000000000000000600052604160045260246000fd5b6000601f19601f8301169050919050565b7f546f75726e616d656e7420646f6573206e6f7420657869737400000000000000600082015250565b61105781610f07565b811461106257600080fd5b5056fea26469706673582212204e6f35cd6ff98668a791e8b2a568f942c053c28d52a0086cfa0755d0cfa5e35064736f6c63430008040033",
  "immutableReferences": {},
  "source": "// SPDX-License-Identifier: MIT\npragma solidity ^0.8.0;\n\ncontract PongTournament {\n    // Structure that holds Tournament information\n    struct Tournament {\n        string tournamentName;\n        string winnerUsername;\n        string p1Username;\n        string p1Nickname;\n        string p2Username;\n        string p2Nickname;\n        string p3Username;\n        string p3Nickname;\n        string p4Username;\n        string p4Nickname;\n        bool   exists;\n    }\n\n    // Map tournament IDs to their respective Tournament\n    mapping(uint256 => Tournament) private tournaments;\n\n    // Event that will be emitted whenever a Tournament's updated\n    event TournamentUpdated(uint256 indexed id, string tournamentName, string winnerUsername, string p1Username, string p1Nickname, string p2Username, string p2Nickname, string p3Username, string p3Nickname, string p4Username, string p4Nickname);\n\n    // Function to update a Tournament's info\n    function updateResult(uint256 id, string memory tournamentName, string memory winnerUsername, string memory p1Username, string memory p1Nickname, string memory p2Username, string memory p2Nickname, string memory p3Username, string memory p3Nickname, string memory p4Username, string memory p4Nickname)  public {\n        tournaments[id].tournamentName = tournamentName;\n        tournaments[id].winnerUsername = winnerUsername;\n        tournaments[id].p1Username = p1Username;\n        tournaments[id].p1Nickname = p1Nickname;\n        tournaments[id].p2Username = p2Username;\n        tournaments[id].p2Nickname = p2Nickname;\n        tournaments[id].p3Username = p3Username;\n        tournaments[id].p3Nickname = p3Nickname;\n        tournaments[id].p4Username = p4Username;\n        tournaments[id].p4Nickname = p4Nickname;\n        tournaments[id].exists = true;\n\n        emit TournamentUpdated(id, tournamentName, winnerUsername, p1Username, p1Nickname, p2Username, p2Nickname, p3Username, p3Nickname, p4Username, p4Nickname);\n    }\n\n    // Function to retrieve a Tournament's info\n    function getTournamentResult(uint256 id) public view returns (string memory, string memory, string memory, string memory, string memory, string memory, string memory, string memory, string memory, string memory) {\n        Tournament memory t = tournaments[id];\n        require(tournaments[id].exists, \"Tournament does not exist\");\n        return (t.tournamentName, t.winnerUsername, t.p1Username, t.p1Nickname, t.p2Username, t.p2Nickname, t.p3Username, t.p3Nickname, t.p4Username, t.p4Nickname);\n    }\n\n    // Function to check if a Tournament exists\n    function tournamentExists(uint256 id) public view returns (bool) {\n        return tournaments[id].exists;\n    }\n}\n",
  "sourcePath": "/transcendence/blockchain/contracts/PongTournament.sol",
  "compiler": {
    "name": "solc",
    "version": "0.8.4+commit.c7e474f2.Emscripten.clang"
  },
  "schemaVersion": "3.4.16",
  "updatedAt": "2024-04-17T14:24:08.911Z",
  "networkType": "ethereum",
  "devdoc": {
    "kind": "dev",
    "methods": {},
    "version": 1
  },
  "userdoc": {
    "kind": "user",
    "methods": {},
    "version": 1
  }
}