{
  "contractName": "PongTournament",
  "abi": [
    {
      "anonymous": false,
      "inputs": [
        {
          "indexed": true,
          "internalType": "uint256",
          "name": "id",
          "type": "uint256"
        },
        {
          "indexed": false,
          "internalType": "string",
          "name": "tournamentName",
          "type": "string"
        },
        {
          "indexed": false,
          "internalType": "string",
          "name": "winnerName",
          "type": "string"
        }
      ],
      "name": "TournamentUpdated",
      "type": "event"
    },
    {
      "inputs": [
        {
          "internalType": "uint256",
          "name": "id",
          "type": "uint256"
        },
        {
          "internalType": "string",
          "name": "tournamentName",
          "type": "string"
        },
        {
          "internalType": "string",
          "name": "winnerName",
          "type": "string"
        }
      ],
      "name": "updateResult",
      "outputs": [],
      "stateMutability": "nonpayable",
      "type": "function"
    },
    {
      "inputs": [
        {
          "internalType": "uint256",
          "name": "id",
          "type": "uint256"
        }
      ],
      "name": "getTournamentResult",
      "outputs": [
        {
          "internalType": "string",
          "name": "",
          "type": "string"
        },
        {
          "internalType": "string",
          "name": "",
          "type": "string"
        }
      ],
      "stateMutability": "view",
      "type": "function",
      "constant": true
    },
    {
      "inputs": [
        {
          "internalType": "uint256",
          "name": "id",
          "type": "uint256"
        }
      ],
      "name": "tournamentExists",
      "outputs": [
        {
          "internalType": "bool",
          "name": "",
          "type": "bool"
        }
      ],
      "stateMutability": "view",
      "type": "function",
      "constant": true
    }
  ],
  "bytecode": "0x608060405234801561001057600080fd5b50610840806100206000396000f3fe608060405234801561001057600080fd5b50600436106100415760003560e01c8063588bfb1614610046578063695e615a14610062578063ddec9d7514610092575b600080fd5b610060600480360381019061005b91906104d2565b6100c3565b005b61007c600480360381019061007791906104a9565b610184565b60405161008991906105bc565b60405180910390f35b6100ac60048036038101906100a791906104a9565b6101b0565b6040516100ba9291906105d7565b60405180910390f35b8160008085815260200190815260200160002060000190805190602001906100ec929190610389565b50806000808581526020019081526020016000206001019080519060200190610116929190610389565b50600160008085815260200190815260200160002060020160006101000a81548160ff021916908315150217905550827fa6496b06d4cb55a9a8c8f4e0b8a1097a1cd00d65717ee3a28493776e1631699383836040516101779291906105d7565b60405180910390a2505050565b600080600083815260200190815260200160002060020160009054906101000a900460ff169050919050565b60608060008060008581526020019081526020016000206040518060600160405290816000820180546101e2906106f8565b80601f016020809104026020016040519081016040528092919081815260200182805461020e906106f8565b801561025b5780601f106102305761010080835404028352916020019161025b565b820191906000526020600020905b81548152906001019060200180831161023e57829003601f168201915b50505050508152602001600182018054610274906106f8565b80601f01602080910402602001604051908101604052809291908181526020018280546102a0906106f8565b80156102ed5780601f106102c2576101008083540402835291602001916102ed565b820191906000526020600020905b8154815290600101906020018083116102d057829003601f168201915b505050505081526020016002820160009054906101000a900460ff161515151581525050905060008085815260200190815260200160002060020160009054906101000a900460ff16610375576040517f08c379a000000000000000000000000000000000000000000000000000000000815260040161036c9061060e565b60405180910390fd5b806000015181602001519250925050915091565b828054610395906106f8565b90600052602060002090601f0160209004810192826103b757600085556103fe565b82601f106103d057805160ff19168380011785556103fe565b828001600101855582156103fe579182015b828111156103fd5782518255916020019190600101906103e2565b5b50905061040b919061040f565b5090565b5b80821115610428576000816000905550600101610410565b5090565b600061043f61043a84610653565b61062e565b90508281526020810184848401111561045757600080fd5b6104628482856106b6565b509392505050565b600082601f83011261047b57600080fd5b813561048b84826020860161042c565b91505092915050565b6000813590506104a3816107f3565b92915050565b6000602082840312156104bb57600080fd5b60006104c984828501610494565b91505092915050565b6000806000606084860312156104e757600080fd5b60006104f586828701610494565b935050602084013567ffffffffffffffff81111561051257600080fd5b61051e8682870161046a565b925050604084013567ffffffffffffffff81111561053b57600080fd5b6105478682870161046a565b9150509250925092565b61055a816106a0565b82525050565b600061056b82610684565b610575818561068f565b93506105858185602086016106c5565b61058e816107b9565b840191505092915050565b60006105a660198361068f565b91506105b1826107ca565b602082019050919050565b60006020820190506105d16000830184610551565b92915050565b600060408201905081810360008301526105f18185610560565b905081810360208301526106058184610560565b90509392505050565b6000602082019050818103600083015261062781610599565b9050919050565b6000610638610649565b9050610644828261072a565b919050565b6000604051905090565b600067ffffffffffffffff82111561066e5761066d61078a565b5b610677826107b9565b9050602081019050919050565b600081519050919050565b600082825260208201905092915050565b60008115159050919050565b6000819050919050565b82818337600083830152505050565b60005b838110156106e35780820151818401526020810190506106c8565b838111156106f2576000848401525b50505050565b6000600282049050600182168061071057607f821691505b602082108114156107245761072361075b565b5b50919050565b610733826107b9565b810181811067ffffffffffffffff821117156107525761075161078a565b5b80604052505050565b7f4e487b7100000000000000000000000000000000000000000000000000000000600052602260045260246000fd5b7f4e487b7100000000000000000000000000000000000000000000000000000000600052604160045260246000fd5b6000601f19601f8301169050919050565b7f546f75726e616d656e7420646f6573206e6f7420657869737400000000000000600082015250565b6107fc816106ac565b811461080757600080fd5b5056fea264697066735822122079a3a8638bc79b185ebdc71ec04fecb564ea97bf2bd916739b10026af698206f64736f6c63430008040033",
  "immutableReferences": {},
  "source": "// SPDX-License-Identifier: MIT\npragma solidity ^0.8.0;\n\ncontract PongTournament {\n    // Structure that holds Tournament information\n    struct Tournament {\n        string tournamentName;\n        string winnerName;\n        bool   exists;\n    }\n\n    // Map tournament IDs to their respective Tournament\n    mapping(uint256 => Tournament) private tournaments;\n\n    // Event that will be emitted whenever a Tournament's updated\n    event TournamentUpdated(uint256 indexed id, string tournamentName, string winnerName);\n\n    // Function to update a Tournament's info\n    function updateResult(uint256 id, string memory tournamentName, string memory winnerName) public {\n        tournaments[id].tournamentName = tournamentName;\n        tournaments[id].winnerName = winnerName;\n        tournaments[id].exists = true;\n\n        emit TournamentUpdated(id, tournamentName, winnerName);\n    }\n\n    // Function to retrieve a Tournament's info\n    function getTournamentResult(uint256 id) public view returns (string memory, string memory) {\n        Tournament memory t = tournaments[id];\n        // require(bytes(t.tournamentName).length > 0, \"Tournament does not exist\");\n        require(tournaments[id].exists, \"Tournament does not exist\");\n        return (t.tournamentName, t.winnerName);\n    }\n\n    // Function to check if a Tournament exists\n    function tournamentExists(uint256 id) public view returns (bool) {\n        return tournaments[id].exists;\n    }\n}\n",
  "sourcePath": "/transcendence/blockchain/contracts/PongTournament.sol",
  "compiler": {
    "name": "solc",
    "version": "0.8.4+commit.c7e474f2.Emscripten.clang"
  },
  "schemaVersion": "3.4.16",
  "updatedAt": "2024-04-14T11:31:04.561Z",
  "networkType": "ethereum",
  "devdoc": {
    "kind": "dev",
    "methods": {},
    "version": 1
  },
  "userdoc": {
    "kind": "user",
    "methods": {},
    "version": 1
  }
}