{
  "contractName": "PongScoreboard",
  "abi": [
    {
      "anonymous": false,
      "inputs": [
        {
          "indexed": true,
          "internalType": "address",
          "name": "player",
          "type": "address"
        },
        {
          "indexed": false,
          "internalType": "uint256",
          "name": "score",
          "type": "uint256"
        }
      ],
      "name": "ScoreUpdated",
      "type": "event"
    },
    {
      "constant": true,
      "inputs": [
        {
          "internalType": "address",
          "name": "",
          "type": "address"
        }
      ],
      "name": "scores",
      "outputs": [
        {
          "internalType": "address",
          "name": "player",
          "type": "address"
        },
        {
          "internalType": "uint256",
          "name": "score",
          "type": "uint256"
        }
      ],
      "payable": false,
      "stateMutability": "view",
      "type": "function"
    },
    {
      "constant": false,
      "inputs": [
        {
          "internalType": "uint256",
          "name": "newScore",
          "type": "uint256"
        }
      ],
      "name": "updateScore",
      "outputs": [],
      "payable": false,
      "stateMutability": "nonpayable",
      "type": "function"
    },
    {
      "constant": true,
      "inputs": [
        {
          "internalType": "address",
          "name": "player",
          "type": "address"
        }
      ],
      "name": "getScore",
      "outputs": [
        {
          "internalType": "uint256",
          "name": "",
          "type": "uint256"
        }
      ],
      "payable": false,
      "stateMutability": "view",
      "type": "function"
    }
  ],
  "bytecode": "0x608060405234801561001057600080fd5b50610332806100206000396000f3fe608060405234801561001057600080fd5b50600436106100415760003560e01c806376dd110f14610046578063d47875d0146100d1578063f853e34d14610129575b600080fd5b6100886004803603602081101561005c57600080fd5b81019080803573ffffffffffffffffffffffffffffffffffffffff169060200190929190505050610157565b604051808373ffffffffffffffffffffffffffffffffffffffff1673ffffffffffffffffffffffffffffffffffffffff1681526020018281526020019250505060405180910390f35b610113600480360360208110156100e757600080fd5b81019080803573ffffffffffffffffffffffffffffffffffffffff16906020019092919050505061019b565b6040518082815260200191505060405180910390f35b6101556004803603602081101561013f57600080fd5b81019080803590602001909291905050506101e6565b005b60006020528060005260406000206000915090508060000160009054906101000a900473ffffffffffffffffffffffffffffffffffffffff16908060010154905082565b60008060008373ffffffffffffffffffffffffffffffffffffffff1673ffffffffffffffffffffffffffffffffffffffff168152602001908152602001600020600101549050919050565b336000803373ffffffffffffffffffffffffffffffffffffffff1673ffffffffffffffffffffffffffffffffffffffff16815260200190815260200160002060000160006101000a81548173ffffffffffffffffffffffffffffffffffffffff021916908373ffffffffffffffffffffffffffffffffffffffff160217905550806000803373ffffffffffffffffffffffffffffffffffffffff1673ffffffffffffffffffffffffffffffffffffffff168152602001908152602001600020600101819055503373ffffffffffffffffffffffffffffffffffffffff167f66ead48cfe0e1d1aa8bad492e906c348dfcfeecbf3b7b2cdf9b1f3cfa42a2945826040518082815260200191505060405180910390a25056fea265627a7a72315820e709ebd7d0195cd5caedec2408126bd3ced87fbe5aa475730df4517819a291bd64736f6c63430005100032",
  "source": "pragma solidity ^0.5.16;\n\ncontract PongScoreboard {\n    struct Score {\n        address player;\n        uint256 score;\n    }\n\n\t//the 'public' keyword gives public access to the map and its content \n\t//\t& it automaticaly creates a getter at compilation \"scores()\"\n    mapping(address => Score) public scores;\n\n    event ScoreUpdated(address indexed player, uint256 score);\n\n\t//\"updates score from existing player or creates a ew one if unknown\"\n    //external = can be called outside the contract\n\t//msg.sender = the caller\n\t//emit = trigger an event -> way for smart contracts to communicate information to external entities, \n\t//\t\t\t\t\t\t\tsuch as frontend applications or other smart contracts.\n    function updateScore(uint256 newScore) external {\n        scores[msg.sender].player = msg.sender;\n        scores[msg.sender].score = newScore;\n        emit ScoreUpdated(msg.sender, newScore);\n    }\n\n\t//view --> does not modify blockchain = no gas fee\n    function getScore(address player) external view returns (uint256) {\n        return scores[player].score;\n    }\n}\n",
  "sourcePath": "/Users/Verdoodt/Desktop/ft_transcendence/blockchain/contracts/PongScoreboard.sol",
  "compiler": {
    "name": "solc",
    "version": "0.5.16+commit.9c3226ce.Emscripten.clang"
  },
  "schemaVersion": "3.4.16",
  "updatedAt": "2024-02-27T17:19:16.735Z",
  "devdoc": {
    "methods": {}
  },
  "userdoc": {
    "methods": {}
  }
}