{
  "contractName": "PongScoreboard",
  "abi": [
    {
      "anonymous": false,
      "inputs": [
        {
          "indexed": true,
          "internalType": "address",
          "name": "player",
          "type": "address"
        },
        {
          "indexed": false,
          "internalType": "uint256",
          "name": "score",
          "type": "uint256"
        }
      ],
      "name": "ScoreUpdated",
      "type": "event"
    },
    {
      "inputs": [
        {
          "internalType": "address",
          "name": "",
          "type": "address"
        }
      ],
      "name": "scores",
      "outputs": [
        {
          "internalType": "address",
          "name": "player",
          "type": "address"
        },
        {
          "internalType": "uint256",
          "name": "score",
          "type": "uint256"
        }
      ],
      "stateMutability": "view",
      "type": "function",
      "constant": true
    },
    {
      "inputs": [
        {
          "internalType": "uint256",
          "name": "newScore",
          "type": "uint256"
        }
      ],
      "name": "updateScore",
      "outputs": [],
      "stateMutability": "nonpayable",
      "type": "function"
    },
    {
      "inputs": [
        {
          "internalType": "address",
          "name": "player",
          "type": "address"
        }
      ],
      "name": "getScore",
      "outputs": [
        {
          "internalType": "uint256",
          "name": "",
          "type": "uint256"
        }
      ],
      "stateMutability": "view",
      "type": "function",
      "constant": true
    }
  ],
  "bytecode": "0x608060405234801561001057600080fd5b506103e7806100206000396000f3fe608060405234801561001057600080fd5b50600436106100415760003560e01c806376dd110f14610046578063d47875d014610077578063f853e34d146100a7575b600080fd5b610060600480360381019061005b9190610293565b6100c3565b60405161006e929190610303565b60405180910390f35b610091600480360381019061008c9190610293565b610107565b60405161009e919061032c565b60405180910390f35b6100c160048036038101906100bc91906102bc565b610152565b005b60006020528060005260406000206000915090508060000160009054906101000a900473ffffffffffffffffffffffffffffffffffffffff16908060010154905082565b60008060008373ffffffffffffffffffffffffffffffffffffffff1673ffffffffffffffffffffffffffffffffffffffff168152602001908152602001600020600101549050919050565b336000803373ffffffffffffffffffffffffffffffffffffffff1673ffffffffffffffffffffffffffffffffffffffff16815260200190815260200160002060000160006101000a81548173ffffffffffffffffffffffffffffffffffffffff021916908373ffffffffffffffffffffffffffffffffffffffff160217905550806000803373ffffffffffffffffffffffffffffffffffffffff1673ffffffffffffffffffffffffffffffffffffffff168152602001908152602001600020600101819055503373ffffffffffffffffffffffffffffffffffffffff167f66ead48cfe0e1d1aa8bad492e906c348dfcfeecbf3b7b2cdf9b1f3cfa42a29458260405161025e919061032c565b60405180910390a250565b60008135905061027881610383565b92915050565b60008135905061028d8161039a565b92915050565b6000602082840312156102a557600080fd5b60006102b384828501610269565b91505092915050565b6000602082840312156102ce57600080fd5b60006102dc8482850161027e565b91505092915050565b6102ee81610347565b82525050565b6102fd81610379565b82525050565b600060408201905061031860008301856102e5565b61032560208301846102f4565b9392505050565b600060208201905061034160008301846102f4565b92915050565b600061035282610359565b9050919050565b600073ffffffffffffffffffffffffffffffffffffffff82169050919050565b6000819050919050565b61038c81610347565b811461039757600080fd5b50565b6103a381610379565b81146103ae57600080fd5b5056fea2646970667358221220f2d69e7f9113f857c015b49dd924dc17465a20b33ac3110d82cfaedb3e0f201c64736f6c63430008040033",
  "immutableReferences": {},
  "source": "// SPDX-License-Identifier: MIT\npragma solidity ^0.8.4;\n\ncontract PongScoreboard {\n    struct Score {\n        address player;\n        uint256 score;\n    }\n\n\t//the 'public' keyword gives public access to the map and its content \n\t//\t& it automaticaly creates a getter at compilation \"scores()\"\n    mapping(address => Score) public scores;\n\n    event ScoreUpdated(address indexed player, uint256 score);\n\n\t//\"updates score from existing player or creates a ew one if unknown\"\n    //external = can be called outside the contract\n\t//msg.sender = the caller\n\t//emit = trigger an event -> way for smart contracts to communicate information to external entities, \n\t//\t\t\t\t\t\t\tsuch as frontend applications or other smart contracts.\n    function updateScore(uint256 newScore) external {\n        scores[msg.sender].player = msg.sender;\n        scores[msg.sender].score = newScore;\n        emit ScoreUpdated(msg.sender, newScore);\n    }\n\n\t//view --> does not modify blockchain = no gas fee\n    function getScore(address player) external view returns (uint256) {\n        return scores[player].score;\n    }\n}\n\n\n// contract PongScoreboard {\n//     // Define a structure to hold player information\n//     struct Player {\n//         uint256 score;\n//         bool exists;\n//     }\n\n//     // Map an address to a Player\n//     mapping(address => Player) private players;\n\n//     // Event that will be emitted whenever a player's score is updated\n//     event ScoreUpdated(address indexed player, uint256 score);\n\n//   // Constructor to initialize the contract\n//     constructor() {\n//         players[msg.sender] = Player(0, true);\n//     }\n    \n//     // Function to update a player's score\n//     function updateScore(uint256 newScore) public {\n//         // If the player doesn't exist yet, create them\n//         if (!players[msg.sender].exists) {\n//             players[msg.sender] = Player(newScore, true);\n//         } else { // If the player exists, just update their score\n//             players[msg.sender].score = newScore;\n//         }\n\n//         // Emit the ScoreUpdated event\n//         emit ScoreUpdated(msg.sender, newScore);\n//     }\n\n//     // Function to retrieve a player's score\n//     function getScore(address player) public view returns (uint256) {\n//         // If the player doesn't exist, return 0\n//         if (!players[player].exists) {\n//             return 0;\n//         }\n\n//         // If the player exists, return their score\n//         return players[player].score;\n//     }\n// }",
  "sourcePath": "/Users/Verdoodt/Desktop/ft_transcendence/blockchain_test/contracts/PongScoreboard.sol",
  "compiler": {
    "name": "solc",
    "version": "0.8.4+commit.c7e474f2.Emscripten.clang"
  },
  "schemaVersion": "3.4.16",
  "updatedAt": "2024-03-05T10:42:02.832Z",
  "networkType": "ethereum",
  "devdoc": {
    "kind": "dev",
    "methods": {},
    "version": 1
  },
  "userdoc": {
    "kind": "user",
    "methods": {},
    "version": 1
  }
}