{
  "contractName": "PongScoreboard",
  "abi": [
    {
      "inputs": [],
      "stateMutability": "nonpayable",
      "type": "constructor"
    },
    {
      "anonymous": false,
      "inputs": [
        {
          "indexed": true,
          "internalType": "address",
          "name": "player",
          "type": "address"
        },
        {
          "indexed": false,
          "internalType": "uint256",
          "name": "score",
          "type": "uint256"
        }
      ],
      "name": "ScoreUpdated",
      "type": "event"
    },
    {
      "inputs": [
        {
          "internalType": "uint256",
          "name": "newScore",
          "type": "uint256"
        }
      ],
      "name": "updateScore",
      "outputs": [],
      "stateMutability": "nonpayable",
      "type": "function"
    },
    {
      "inputs": [
        {
          "internalType": "address",
          "name": "player",
          "type": "address"
        }
      ],
      "name": "getScore",
      "outputs": [
        {
          "internalType": "uint256",
          "name": "",
          "type": "uint256"
        }
      ],
      "stateMutability": "view",
      "type": "function",
      "constant": true
    }
  ],
  "bytecode": "0x608060405234801561001057600080fd5b50604051806040016040528060138152602001600115158152506000803373ffffffffffffffffffffffffffffffffffffffff1673ffffffffffffffffffffffffffffffffffffffff1681526020019081526020016000206000820151816000015560208201518160010160006101000a81548160ff0219169083151502179055509050506103e8806100a46000396000f3fe608060405234801561001057600080fd5b50600436106100365760003560e01c8063d47875d01461003b578063f853e34d1461006b575b600080fd5b610055600480360381019061005091906102cc565b610087565b604051610062919061032d565b60405180910390f35b610085600480360381019061008091906102f5565b61012f565b005b60008060008373ffffffffffffffffffffffffffffffffffffffff1673ffffffffffffffffffffffffffffffffffffffff16815260200190815260200160002060010160009054906101000a900460ff166100e5576000905061012a565b6000808373ffffffffffffffffffffffffffffffffffffffff1673ffffffffffffffffffffffffffffffffffffffff1681526020019081526020016000206000015490505b919050565b6000803373ffffffffffffffffffffffffffffffffffffffff1673ffffffffffffffffffffffffffffffffffffffff16815260200190815260200160002060010160009054906101000a900460ff1661020a576040518060400160405280828152602001600115158152506000803373ffffffffffffffffffffffffffffffffffffffff1673ffffffffffffffffffffffffffffffffffffffff1681526020019081526020016000206000820151816000015560208201518160010160006101000a81548160ff021916908315150217905550905050610251565b806000803373ffffffffffffffffffffffffffffffffffffffff1673ffffffffffffffffffffffffffffffffffffffff168152602001908152602001600020600001819055505b3373ffffffffffffffffffffffffffffffffffffffff167f66ead48cfe0e1d1aa8bad492e906c348dfcfeecbf3b7b2cdf9b1f3cfa42a294582604051610297919061032d565b60405180910390a250565b6000813590506102b181610384565b92915050565b6000813590506102c68161039b565b92915050565b6000602082840312156102de57600080fd5b60006102ec848285016102a2565b91505092915050565b60006020828403121561030757600080fd5b6000610315848285016102b7565b91505092915050565b6103278161037a565b82525050565b6000602082019050610342600083018461031e565b92915050565b60006103538261035a565b9050919050565b600073ffffffffffffffffffffffffffffffffffffffff82169050919050565b6000819050919050565b61038d81610348565b811461039857600080fd5b50565b6103a48161037a565b81146103af57600080fd5b5056fea26469706673582212208b3c612b7aa8efe553862dc145bfa0e52b8bf463bb8ff9ba61c46e3d1d204b5d64736f6c63430008040033",
  "immutableReferences": {},
  "source": "// SPDX-License-Identifier: MIT\npragma solidity ^0.8.4;\n\n// contract PongScoreboard {\n//     struct Score {\n//         address player;\n//         uint256 score;\n//     }\n\n// \t// the 'public' keyword gives public access to the map and its content \n// \t//\t& it automaticaly creates a getter at compilation \"scores()\"\n//     mapping(address => Score) public scores;\n\n//     event ScoreUpdated(address indexed player, uint256 score);\n\n// \t// \"updates score from existing player or creates a ew one if unknown\"\n//     // external = can be called outside the contract\n// \t// msg.sender = the caller\n// \t// emit = trigger an event -> way for smart contracts to communicate information to external entities, \n// \t//\t\t\t\t\t\t\tsuch as frontend applications or other smart contracts.\n//     function updateScore(uint256 newScore) external {\n//         scores[msg.sender].player = msg.sender;\n//         scores[msg.sender].score = newScore;\n//         emit ScoreUpdated(msg.sender, newScore);\n//     }\n\n// \t// view --> does not modify blockchain = no gas fee\n//     function getScore(address player) external view returns (uint256) {\n//         return scores[player].score;\n//     }\n// }\n\n\ncontract PongScoreboard {\n    // Define a structure to hold player information\n    struct Player {\n        uint256 score;\n        bool exists;\n    }\n\n    // Map an address to a Player\n    mapping(address => Player) private players;\n\n    // Event that will be emitted whenever a player's score is updated\n    event ScoreUpdated(address indexed player, uint256 score);\n\n  // Constructor to initialize the contract\n    constructor() {\n        players[msg.sender] = Player(19, true);\n    }\n    \n    // Function to update a player's score\n    function updateScore(uint256 newScore) public {\n        // If the player doesn't exist yet, create them\n        if (!players[msg.sender].exists) {\n            players[msg.sender] = Player(newScore, true);\n        } else { // If the player exists, just update their score\n            players[msg.sender].score = newScore;\n        }\n\n        // Emit the ScoreUpdated event\n        emit ScoreUpdated(msg.sender, newScore);\n    }\n\n    // Function to retrieve a player's score\n    function getScore(address player) public view returns (uint256) {\n        // If the player doesn't exist, return 0\n        if (!players[player].exists) {\n            return 0;\n        }\n\n        // If the player exists, return their score\n        return players[player].score;\n    }\n}",
  "sourcePath": "/Users/Verdoodt/Desktop/ft_transcendence/blockchain_test/contracts/PongScoreboard.sol",
  "compiler": {
    "name": "solc",
    "version": "0.8.4+commit.c7e474f2.Emscripten.clang"
  },
  "schemaVersion": "3.4.16",
  "updatedAt": "2024-03-05T11:45:52.613Z",
  "networkType": "ethereum",
  "devdoc": {
    "kind": "dev",
    "methods": {},
    "version": 1
  },
  "userdoc": {
    "kind": "user",
    "methods": {},
    "version": 1
  }
}